{
  "contractName": "PelotonCrowdsale",
  "abi": [
    {
      "constant": true,
      "inputs": [
        {
          "name": "",
          "type": "address"
        }
      ],
      "name": "addressWei",
      "outputs": [
        {
          "name": "",
          "type": "uint256"
        }
      ],
      "payable": false,
      "stateMutability": "view",
      "type": "function"
    },
    {
      "constant": true,
      "inputs": [
        {
          "name": "",
          "type": "address"
        }
      ],
      "name": "addressTokens",
      "outputs": [
        {
          "name": "",
          "type": "uint256"
        }
      ],
      "payable": false,
      "stateMutability": "view",
      "type": "function"
    },
    {
      "constant": true,
      "inputs": [],
      "name": "verifier",
      "outputs": [
        {
          "name": "",
          "type": "address"
        }
      ],
      "payable": false,
      "stateMutability": "view",
      "type": "function"
    },
    {
      "constant": true,
      "inputs": [
        {
          "name": "",
          "type": "address"
        }
      ],
      "name": "allowedAddresses",
      "outputs": [
        {
          "name": "",
          "type": "bool"
        }
      ],
      "payable": false,
      "stateMutability": "view",
      "type": "function"
    },
    {
      "constant": false,
      "inputs": [
        {
          "name": "_address",
          "type": "address"
        },
        {
          "name": "_allow",
          "type": "bool"
        }
      ],
      "name": "allowAddress",
      "outputs": [],
      "payable": false,
      "stateMutability": "nonpayable",
      "type": "function"
    },
    {
      "constant": true,
      "inputs": [],
      "name": "tokensSold",
      "outputs": [
        {
          "name": "",
          "type": "uint256"
        }
      ],
      "payable": false,
      "stateMutability": "view",
      "type": "function"
    },
    {
      "constant": true,
      "inputs": [],
      "name": "wallet",
      "outputs": [
        {
          "name": "",
          "type": "address"
        }
      ],
      "payable": false,
      "stateMutability": "view",
      "type": "function"
    },
    {
      "constant": true,
      "inputs": [
        {
          "name": "",
          "type": "bytes32"
        }
      ],
      "name": "uuidWei",
      "outputs": [
        {
          "name": "",
          "type": "uint256"
        }
      ],
      "payable": false,
      "stateMutability": "view",
      "type": "function"
    },
    {
      "constant": false,
      "inputs": [],
      "name": "renounceOwnership",
      "outputs": [],
      "payable": false,
      "stateMutability": "nonpayable",
      "type": "function"
    },
    {
      "constant": true,
      "inputs": [],
      "name": "pricingStrategy",
      "outputs": [
        {
          "name": "",
          "type": "address"
        }
      ],
      "payable": false,
      "stateMutability": "view",
      "type": "function"
    },
    {
      "constant": true,
      "inputs": [
        {
          "name": "",
          "type": "uint256"
        }
      ],
      "name": "stages",
      "outputs": [
        {
          "name": "sold",
          "type": "uint256"
        },
        {
          "name": "discount",
          "type": "uint256"
        },
        {
          "name": "maxTokens",
          "type": "uint256"
        },
        {
          "name": "startTime",
          "type": "uint256"
        },
        {
          "name": "endTime",
          "type": "uint256"
        }
      ],
      "payable": false,
      "stateMutability": "view",
      "type": "function"
    },
    {
      "constant": true,
      "inputs": [],
      "name": "owner",
      "outputs": [
        {
          "name": "",
          "type": "address"
        }
      ],
      "payable": false,
      "stateMutability": "view",
      "type": "function"
    },
    {
      "constant": true,
      "inputs": [],
      "name": "weiReceived",
      "outputs": [
        {
          "name": "",
          "type": "uint256"
        }
      ],
      "payable": false,
      "stateMutability": "view",
      "type": "function"
    },
    {
      "constant": true,
      "inputs": [],
      "name": "referrals",
      "outputs": [
        {
          "name": "",
          "type": "address"
        }
      ],
      "payable": false,
      "stateMutability": "view",
      "type": "function"
    },
    {
      "constant": true,
      "inputs": [
        {
          "name": "",
          "type": "bytes32"
        }
      ],
      "name": "uuidTokens",
      "outputs": [
        {
          "name": "",
          "type": "uint256"
        }
      ],
      "payable": false,
      "stateMutability": "view",
      "type": "function"
    },
    {
      "constant": true,
      "inputs": [],
      "name": "currentStatus",
      "outputs": [
        {
          "name": "",
          "type": "uint8"
        }
      ],
      "payable": false,
      "stateMutability": "view",
      "type": "function"
    },
    {
      "constant": false,
      "inputs": [
        {
          "name": "_newOwner",
          "type": "address"
        }
      ],
      "name": "transferOwnership",
      "outputs": [],
      "payable": false,
      "stateMutability": "nonpayable",
      "type": "function"
    },
    {
      "constant": true,
      "inputs": [],
      "name": "token",
      "outputs": [
        {
          "name": "",
          "type": "address"
        }
      ],
      "payable": false,
      "stateMutability": "view",
      "type": "function"
    },
    {
      "inputs": [
        {
          "name": "_token",
          "type": "address"
        },
        {
          "name": "_wallet",
          "type": "address"
        },
        {
          "name": "_pricingStrategy",
          "type": "address"
        },
        {
          "name": "_verifier",
          "type": "address"
        },
        {
          "name": "_referrals",
          "type": "address"
        }
      ],
      "payable": false,
      "stateMutability": "nonpayable",
      "type": "constructor"
    },
    {
      "anonymous": false,
      "inputs": [
        {
          "indexed": false,
          "name": "_from",
          "type": "address"
        },
        {
          "indexed": false,
          "name": "_timestamp",
          "type": "uint256"
        },
        {
          "indexed": false,
          "name": "_currentStatus",
          "type": "uint8"
        },
        {
          "indexed": false,
          "name": "_discount",
          "type": "uint256"
        },
        {
          "indexed": false,
          "name": "_maxTokens",
          "type": "uint256"
        }
      ],
      "name": "NextStage",
      "type": "event"
    },
    {
      "anonymous": false,
      "inputs": [
        {
          "indexed": false,
          "name": "_from",
          "type": "address"
        },
        {
          "indexed": false,
          "name": "_prevAddress",
          "type": "address"
        },
        {
          "indexed": false,
          "name": "_newAddress",
          "type": "address"
        }
      ],
      "name": "PricingStrategyChanged",
      "type": "event"
    },
    {
      "anonymous": false,
      "inputs": [
        {
          "indexed": false,
          "name": "_uuid",
          "type": "bytes32"
        },
        {
          "indexed": false,
          "name": "_investor",
          "type": "address"
        },
        {
          "indexed": false,
          "name": "_timestamp",
          "type": "uint256"
        },
        {
          "indexed": false,
          "name": "_wei",
          "type": "uint256"
        },
        {
          "indexed": false,
          "name": "_tokens",
          "type": "uint256"
        },
        {
          "indexed": false,
          "name": "_referral",
          "type": "address"
        }
      ],
      "name": "Invested",
      "type": "event"
    },
    {
      "anonymous": false,
      "inputs": [
        {
          "indexed": false,
          "name": "_from",
          "type": "address"
        },
        {
          "indexed": false,
          "name": "_prevAddress",
          "type": "address"
        },
        {
          "indexed": false,
          "name": "_newAddress",
          "type": "address"
        }
      ],
      "name": "VerifierChanged",
      "type": "event"
    },
    {
      "anonymous": false,
      "inputs": [
        {
          "indexed": false,
          "name": "_left",
          "type": "uint256"
        },
        {
          "indexed": false,
          "name": "_current",
          "type": "uint256"
        },
        {
          "indexed": false,
          "name": "_wei",
          "type": "uint256"
        },
        {
          "indexed": false,
          "name": "_result",
          "type": "bool"
        }
      ],
      "name": "Left",
      "type": "event"
    },
    {
      "anonymous": false,
      "inputs": [
        {
          "indexed": true,
          "name": "previousOwner",
          "type": "address"
        }
      ],
      "name": "OwnershipRenounced",
      "type": "event"
    },
    {
      "anonymous": false,
      "inputs": [
        {
          "indexed": true,
          "name": "previousOwner",
          "type": "address"
        },
        {
          "indexed": true,
          "name": "newOwner",
          "type": "address"
        }
      ],
      "name": "OwnershipTransferred",
      "type": "event"
    },
    {
      "constant": false,
      "inputs": [],
      "name": "nextStage",
      "outputs": [],
      "payable": false,
      "stateMutability": "nonpayable",
      "type": "function"
    },
    {
      "constant": false,
      "inputs": [
        {
          "name": "_uuid",
          "type": "bytes32"
        },
        {
          "name": "_referral",
          "type": "address"
        },
        {
          "name": "v",
          "type": "uint8"
        },
        {
          "name": "r",
          "type": "bytes32"
        },
        {
          "name": "s",
          "type": "bytes32"
        }
      ],
      "name": "invest",
      "outputs": [],
      "payable": true,
      "stateMutability": "payable",
      "type": "function"
    },
    {
      "constant": false,
      "inputs": [
        {
          "name": "_uuid",
          "type": "bytes32"
        },
        {
          "name": "_to",
          "type": "address"
        },
        {
          "name": "_wei",
          "type": "uint256"
        },
        {
          "name": "_referral",
          "type": "address"
        }
      ],
      "name": "allocate",
      "outputs": [],
      "payable": false,
      "stateMutability": "nonpayable",
      "type": "function"
    },
    {
      "constant": false,
      "inputs": [
        {
          "name": "_pricingStrategy",
          "type": "address"
        }
      ],
      "name": "setPricingStartegy",
      "outputs": [],
      "payable": false,
      "stateMutability": "nonpayable",
      "type": "function"
    },
    {
      "constant": false,
      "inputs": [
        {
          "name": "_addr",
          "type": "address"
        }
      ],
      "name": "setVerifier",
      "outputs": [],
      "payable": false,
      "stateMutability": "nonpayable",
      "type": "function"
    },
    {
      "constant": true,
      "inputs": [
        {
          "name": "_status",
          "type": "uint8"
        }
      ],
      "name": "getStageInfo",
      "outputs": [
        {
          "name": "_discount",
          "type": "uint256"
        },
        {
          "name": "_maxTokens",
          "type": "uint256"
        },
        {
          "name": "_start",
          "type": "uint256"
        },
        {
          "name": "_end",
          "type": "uint256"
        }
      ],
      "payable": false,
      "stateMutability": "view",
      "type": "function"
    },
    {
      "constant": false,
      "inputs": [
        {
          "name": "_uuid",
          "type": "bytes32"
        },
        {
          "name": "_referral",
          "type": "address"
        }
      ],
      "name": "getHash",
      "outputs": [
        {
          "name": "hash",
          "type": "bytes32"
        },
        {
          "name": "uuid",
          "type": "bytes32"
        }
      ],
      "payable": false,
      "stateMutability": "nonpayable",
      "type": "function"
    },
    {
      "constant": true,
      "inputs": [
        {
          "name": "hash",
          "type": "bytes32"
        },
        {
          "name": "v",
          "type": "uint8"
        },
        {
          "name": "r",
          "type": "bytes32"
        },
        {
          "name": "s",
          "type": "bytes32"
        }
      ],
      "name": "verify",
      "outputs": [
        {
          "name": "",
          "type": "address"
        }
      ],
      "payable": false,
      "stateMutability": "view",
      "type": "function"
    }
  ],
  "bytecode": "0x60806040526000600c60006101000a81548160ff021916908360058111156200002457fe5b02179055506000600d556000600e553480156200004057600080fd5b5060405160a080620032f78339810180604052810190808051906020019092919080519060200190929190805190602001909291908051906020019092919080519060200190929190505050336000806101000a81548173ffffffffffffffffffffffffffffffffffffffff021916908373ffffffffffffffffffffffffffffffffffffffff160217905550336000806101000a81548173ffffffffffffffffffffffffffffffffffffffff021916908373ffffffffffffffffffffffffffffffffffffffff16021790555084600260006101000a81548173ffffffffffffffffffffffffffffffffffffffff021916908373ffffffffffffffffffffffffffffffffffffffff16021790555083600360006101000a81548173ffffffffffffffffffffffffffffffffffffffff021916908373ffffffffffffffffffffffffffffffffffffffff16021790555082600460006101000a81548173ffffffffffffffffffffffffffffffffffffffff021916908373ffffffffffffffffffffffffffffffffffffffff16021790555081600560006101000a81548173ffffffffffffffffffffffffffffffffffffffff021916908373ffffffffffffffffffffffffffffffffffffffff16021790555080600660006101000a81548173ffffffffffffffffffffffffffffffffffffffff021916908373ffffffffffffffffffffffffffffffffffffffff16021790555060a060405190810160405280600081526020016000815260200160008152602001600081526020016000815250600b60008060058111156200028f57fe5b8152602001908152602001600020600082015181600001556020820151816001015560408201518160020155606082015181600301556080820151816004015590505060a06040519081016040528060008152602001601e8152602001600260009054906101000a900473ffffffffffffffffffffffffffffffffffffffff1673ffffffffffffffffffffffffffffffffffffffff1663313ce5676040518163ffffffff167c0100000000000000000000000000000000000000000000000000000000028152600401602060405180830381600087803b1580156200037357600080fd5b505af115801562000388573d6000803e3d6000fd5b505050506040513d60208110156200039f57600080fd5b810190808051906020019092919050505060ff16600a0a6306acfc00028152602001600081526020016000815250600b600060016005811115620003df57fe5b8152602001908152602001600020600082015181600001556020820151816001015560408201518160020155606082015181600301556080820151816004015590505060a0604051908101604052806000815260200160148152602001600260009054906101000a900473ffffffffffffffffffffffffffffffffffffffff1673ffffffffffffffffffffffffffffffffffffffff1663313ce5676040518163ffffffff167c0100000000000000000000000000000000000000000000000000000000028152600401602060405180830381600087803b158015620004c357600080fd5b505af1158015620004d8573d6000803e3d6000fd5b505050506040513d6020811015620004ef57600080fd5b810190808051906020019092919050505060ff16600a0a6303d09000028152602001600081526020016000815250600b6000600260058111156200052f57fe5b8152602001908152602001600020600082015181600001556020820151816001015560408201518160020155606082015181600301556080820151816004015590505060a06040519081016040528060008152602001600a8152602001600260009054906101000a900473ffffffffffffffffffffffffffffffffffffffff1673ffffffffffffffffffffffffffffffffffffffff1663313ce5676040518163ffffffff167c0100000000000000000000000000000000000000000000000000000000028152600401602060405180830381600087803b1580156200061357600080fd5b505af115801562000628573d6000803e3d6000fd5b505050506040513d60208110156200063f57600080fd5b810190808051906020019092919050505060ff16600a0a6302dc6c00028152602001600081526020016000815250600b6000600360058111156200067f57fe5b8152602001908152602001600020600082015181600001556020820151816001015560408201518160020155606082015181600301556080820151816004015590505060a0604051908101604052806000815260200160008152602001600260009054906101000a900473ffffffffffffffffffffffffffffffffffffffff1673ffffffffffffffffffffffffffffffffffffffff1663313ce5676040518163ffffffff167c0100000000000000000000000000000000000000000000000000000000028152600401602060405180830381600087803b1580156200076357600080fd5b505af115801562000778573d6000803e3d6000fd5b505050506040513d60208110156200078f57600080fd5b810190808051906020019092919050505060ff16600a0a62f42400028152602001600081526020016000815250600b600060046005811115620007ce57fe5b8152602001908152602001600020600082015181600001556020820151816001015560408201518160020155606082015181600301556080820151816004015590505060a060405190810160405280600081526020016000815260200160008152602001600081526020016000815250600b60006005808111156200084f57fe5b815260200190815260200160002060008201518160000155602082015181600101556040820151816002015560608201518160030155608082015181600401559050505050505050612a5080620008a76000396000f300608060405260043610610154576000357c0100000000000000000000000000000000000000000000000000000000900463ffffffff168063015c1fc21461015957806325ef4100146101b05780632b7ac3f3146102075780634120657a1461025e578063481a0672146102b95780634edc689d14610335578063518ab2a814610384578063521eb273146103af5780635437988d1461040657806368a4c4b914610449578063715018a61461048e578063748f38e2146104a557806378b99c24146104e8578063845ddcb21461053f5780638da5cb5b1461059c5780639d104770146105f3578063a000aeb71461064c578063d3dc753914610677578063e9767559146106ce578063ee3743ab14610749578063eea788c214610760578063ef8a9235146107a5578063f136c34e146107de578063f1835db71461084b578063f2fde38b146108e5578063fc0c546a14610928575b600080fd5b34801561016557600080fd5b5061019a600480360381019080803573ffffffffffffffffffffffffffffffffffffffff16906020019092919050505061097f565b6040518082815260200191505060405180910390f35b3480156101bc57600080fd5b506101f1600480360381019080803573ffffffffffffffffffffffffffffffffffffffff169060200190929190505050610997565b6040518082815260200191505060405180910390f35b34801561021357600080fd5b5061021c6109af565b604051808273ffffffffffffffffffffffffffffffffffffffff1673ffffffffffffffffffffffffffffffffffffffff16815260200191505060405180910390f35b34801561026a57600080fd5b5061029f600480360381019080803573ffffffffffffffffffffffffffffffffffffffff1690602001909291905050506109d5565b604051808215151515815260200191505060405180910390f35b3480156102c557600080fd5b506103086004803603810190808035600019169060200190929190803573ffffffffffffffffffffffffffffffffffffffff1690602001909291905050506109f5565b60405180836000191660001916815260200182600019166000191681526020019250505060405180910390f35b34801561034157600080fd5b50610382600480360381019080803573ffffffffffffffffffffffffffffffffffffffff169060200190929190803515159060200190929190505050610ad1565b005b34801561039057600080fd5b50610399610b87565b6040518082815260200191505060405180910390f35b3480156103bb57600080fd5b506103c4610b8d565b604051808273ffffffffffffffffffffffffffffffffffffffff1673ffffffffffffffffffffffffffffffffffffffff16815260200191505060405180910390f35b34801561041257600080fd5b50610447600480360381019080803573ffffffffffffffffffffffffffffffffffffffff169060200190929190505050610bb3565b005b34801561045557600080fd5b506104786004803603810190808035600019169060200190929190505050610d3f565b6040518082815260200191505060405180910390f35b34801561049a57600080fd5b506104a3610d57565b005b3480156104b157600080fd5b506104e6600480360381019080803573ffffffffffffffffffffffffffffffffffffffff169060200190929190505050610e59565b005b3480156104f457600080fd5b506104fd61108f565b604051808273ffffffffffffffffffffffffffffffffffffffff1673ffffffffffffffffffffffffffffffffffffffff16815260200191505060405180910390f35b34801561054b57600080fd5b5061056a600480360381019080803590602001909291905050506110b5565b604051808681526020018581526020018481526020018381526020018281526020019550505050505060405180910390f35b3480156105a857600080fd5b506105b16110eb565b604051808273ffffffffffffffffffffffffffffffffffffffff1673ffffffffffffffffffffffffffffffffffffffff16815260200191505060405180910390f35b3480156105ff57600080fd5b50610621600480360381019080803560ff169060200190929190505050611110565b6040518085815260200184815260200183815260200182815260200194505050505060405180910390f35b34801561065857600080fd5b5061066161118b565b6040518082815260200191505060405180910390f35b34801561068357600080fd5b5061068c611191565b604051808273ffffffffffffffffffffffffffffffffffffffff1673ffffffffffffffffffffffffffffffffffffffff16815260200191505060405180910390f35b3480156106da57600080fd5b506107476004803603810190808035600019169060200190929190803573ffffffffffffffffffffffffffffffffffffffff16906020019092919080359060200190929190803573ffffffffffffffffffffffffffffffffffffffff1690602001909291905050506111b7565b005b34801561075557600080fd5b5061075e6119e3565b005b34801561076c57600080fd5b5061078f6004803603810190808035600019169060200190929190505050611cfb565b6040518082815260200191505060405180910390f35b3480156107b157600080fd5b506107ba611d13565b604051808260058111156107ca57fe5b60ff16815260200191505060405180910390f35b6108496004803603810190808035600019169060200190929190803573ffffffffffffffffffffffffffffffffffffffff169060200190929190803560ff16906020019092919080356000191690602001909291908035600019169060200190929190505050611d26565b005b34801561085757600080fd5b506108a36004803603810190808035600019169060200190929190803560ff16906020019092919080356000191690602001909291908035600019169060200190929190505050612660565b604051808273ffffffffffffffffffffffffffffffffffffffff1673ffffffffffffffffffffffffffffffffffffffff16815260200191505060405180910390f35b3480156108f157600080fd5b50610926600480360381019080803573ffffffffffffffffffffffffffffffffffffffff16906020019092919050505061280c565b005b34801561093457600080fd5b5061093d612873565b604051808273ffffffffffffffffffffffffffffffffffffffff1673ffffffffffffffffffffffffffffffffffffffff16815260200191505060405180910390f35b60086020528060005260406000206000915090505481565b60076020528060005260406000206000915090505481565b600560009054906101000a900473ffffffffffffffffffffffffffffffffffffffff1681565b60016020528060005260406000206000915054906101000a900460ff1681565b60008083905083836040516020018083600019166000191681526020018273ffffffffffffffffffffffffffffffffffffffff1673ffffffffffffffffffffffffffffffffffffffff166c01000000000000000000000000028152601401925050506040516020818303038152906040526040518082805190602001908083835b602083101515610a9b5780518252602082019150602081019050602083039250610a76565b6001836020036101000a038019825116818451168082178552505050505050905001915050604051809103902091509250929050565b6000809054906101000a900473ffffffffffffffffffffffffffffffffffffffff1673ffffffffffffffffffffffffffffffffffffffff163373ffffffffffffffffffffffffffffffffffffffff16141515610b2c57600080fd5b80600160008473ffffffffffffffffffffffffffffffffffffffff1673ffffffffffffffffffffffffffffffffffffffff16815260200190815260200160002060006101000a81548160ff0219169083151502179055505050565b600d5481565b600360009054906101000a900473ffffffffffffffffffffffffffffffffffffffff1681565b6000809054906101000a900473ffffffffffffffffffffffffffffffffffffffff1673ffffffffffffffffffffffffffffffffffffffff163373ffffffffffffffffffffffffffffffffffffffff16141515610c0e57600080fd5b7fab33b60d90e477d6167b1a1d4836dba194477e182f98e153fd984ed5ce6d102233600560009054906101000a900473ffffffffffffffffffffffffffffffffffffffff1683604051808473ffffffffffffffffffffffffffffffffffffffff1673ffffffffffffffffffffffffffffffffffffffff1681526020018373ffffffffffffffffffffffffffffffffffffffff1673ffffffffffffffffffffffffffffffffffffffff1681526020018273ffffffffffffffffffffffffffffffffffffffff1673ffffffffffffffffffffffffffffffffffffffff168152602001935050505060405180910390a180600560006101000a81548173ffffffffffffffffffffffffffffffffffffffff021916908373ffffffffffffffffffffffffffffffffffffffff16021790555050565b600a6020528060005260406000206000915090505481565b6000809054906101000a900473ffffffffffffffffffffffffffffffffffffffff1673ffffffffffffffffffffffffffffffffffffffff163373ffffffffffffffffffffffffffffffffffffffff16141515610db257600080fd5b6000809054906101000a900473ffffffffffffffffffffffffffffffffffffffff1673ffffffffffffffffffffffffffffffffffffffff167ff8df31144d9c2f0f6b59d69b8b98abd5459d07f2742c4df920b25aae33c6482060405160405180910390a260008060006101000a81548173ffffffffffffffffffffffffffffffffffffffff021916908373ffffffffffffffffffffffffffffffffffffffff160217905550565b6000809054906101000a900473ffffffffffffffffffffffffffffffffffffffff1673ffffffffffffffffffffffffffffffffffffffff163373ffffffffffffffffffffffffffffffffffffffff16141515610eb457600080fd5b8073ffffffffffffffffffffffffffffffffffffffff166304bbc2556040518163ffffffff167c0100000000000000000000000000000000000000000000000000000000028152600401602060405180830381600087803b158015610f1857600080fd5b505af1158015610f2c573d6000803e3d6000fd5b505050506040513d6020811015610f4257600080fd5b81019080805190602001909291905050501515610f5e57600080fd5b7f08cf95f906ca86fc05465598653379f5a6ea729f996aab1ad7587b9d490cfee533600460009054906101000a900473ffffffffffffffffffffffffffffffffffffffff1683604051808473ffffffffffffffffffffffffffffffffffffffff1673ffffffffffffffffffffffffffffffffffffffff1681526020018373ffffffffffffffffffffffffffffffffffffffff1673ffffffffffffffffffffffffffffffffffffffff1681526020018273ffffffffffffffffffffffffffffffffffffffff1673ffffffffffffffffffffffffffffffffffffffff168152602001935050505060405180910390a180600460006101000a81548173ffffffffffffffffffffffffffffffffffffffff021916908373ffffffffffffffffffffffffffffffffffffffff16021790555050565b600460009054906101000a900473ffffffffffffffffffffffffffffffffffffffff1681565b600b6020528060005260406000206000915090508060000154908060010154908060020154908060030154908060040154905085565b6000809054906101000a900473ffffffffffffffffffffffffffffffffffffffff1681565b60008060008061111e6129f4565b61112786612899565b60a0604051908101604052908160008201548152602001600182015481526020016002820154815260200160038201548152602001600482015481525050905080602001519450806040015193508060600151925080608001519150509193509193565b600e5481565b600660009054906101000a900473ffffffffffffffffffffffffffffffffffffffff1681565b60008060008060009054906101000a900473ffffffffffffffffffffffffffffffffffffffff1673ffffffffffffffffffffffffffffffffffffffff163373ffffffffffffffffffffffffffffffffffffffff161480611267575060011515600160003373ffffffffffffffffffffffffffffffffffffffff1673ffffffffffffffffffffffffffffffffffffffff16815260200190815260200160002060009054906101000a900460ff161515145b151561127257600080fd5b600080600581111561128057fe5b600c60009054906101000a900460ff16600581111561129b57fe5b1115156112a757600080fd5b60058060058111156112b557fe5b600c60009054906101000a900460ff1660058111156112d057fe5b1015156112dc57600080fd5b6112f4600c60009054906101000a900460ff16612899565b94508460020154856000015410151561130c57600080fd5b600460009054906101000a900473ffffffffffffffffffffffffffffffffffffffff1673ffffffffffffffffffffffffffffffffffffffff1663a6413a2788600260009054906101000a900473ffffffffffffffffffffffffffffffffffffffff1673ffffffffffffffffffffffffffffffffffffffff1663313ce5676040518163ffffffff167c0100000000000000000000000000000000000000000000000000000000028152600401602060405180830381600087803b1580156113d157600080fd5b505af11580156113e5573d6000803e3d6000fd5b505050506040513d60208110156113fb57600080fd5b81019080805190602001909291905050506040518363ffffffff167c0100000000000000000000000000000000000000000000000000000000028152600401808381526020018260ff16815260200192505050602060405180830381600087803b15801561146857600080fd5b505af115801561147c573d6000803e3d6000fd5b505050506040513d602081101561149257600080fd5b810190808051906020019092919050505093506000841115156114b457600080fd5b600085600201540392508383101515156114cd57600080fd5b6114e48486600001546128c590919063ffffffff16565b856000018190555061153e84600760008b73ffffffffffffffffffffffffffffffffffffffff1673ffffffffffffffffffffffffffffffffffffffff168152602001908152602001600020546128c590919063ffffffff16565b600760008a73ffffffffffffffffffffffffffffffffffffffff1673ffffffffffffffffffffffffffffffffffffffff168152602001908152602001600020819055506115d387600860008b73ffffffffffffffffffffffffffffffffffffffff1673ffffffffffffffffffffffffffffffffffffffff168152602001908152602001600020546128c590919063ffffffff16565b600860008a73ffffffffffffffffffffffffffffffffffffffff1673ffffffffffffffffffffffffffffffffffffffff1681526020019081526020016000208190555061164484600960008c60001916600019168152602001908152602001600020546128c590919063ffffffff16565b600960008b600019166000191681526020019081526020016000208190555061169134600a60008c60001916600019168152602001908152602001600020546128c590919063ffffffff16565b600a60008b60001916600019168152602001908152602001600020819055506116c584600d546128c590919063ffffffff16565b600d819055506116e087600e546128c590919063ffffffff16565b600e81905550600260009054906101000a900473ffffffffffffffffffffffffffffffffffffffff1673ffffffffffffffffffffffffffffffffffffffff166323b872dd6000809054906101000a900473ffffffffffffffffffffffffffffffffffffffff168a876040518463ffffffff167c0100000000000000000000000000000000000000000000000000000000028152600401808473ffffffffffffffffffffffffffffffffffffffff1673ffffffffffffffffffffffffffffffffffffffff1681526020018373ffffffffffffffffffffffffffffffffffffffff1673ffffffffffffffffffffffffffffffffffffffff1681526020018281526020019350505050602060405180830381600087803b15801561180057600080fd5b505af1158015611814573d6000803e3d6000fd5b505050506040513d602081101561182a57600080fd5b810190808051906020019092919050505050600660009054906101000a900473ffffffffffffffffffffffffffffffffffffffff1673ffffffffffffffffffffffffffffffffffffffff1663a2d83b5e87866040518363ffffffff167c0100000000000000000000000000000000000000000000000000000000028152600401808373ffffffffffffffffffffffffffffffffffffffff1673ffffffffffffffffffffffffffffffffffffffff16815260200182815260200192505050600060405180830381600087803b15801561190157600080fd5b505af1158015611915573d6000803e3d6000fd5b505050507f47733ba13fc307be0b04f5147c3b0fb6855849f19c369c0ad4c52cbd4549cd908989428a888b6040518087600019166000191681526020018673ffffffffffffffffffffffffffffffffffffffff1673ffffffffffffffffffffffffffffffffffffffff1681526020018581526020018481526020018381526020018273ffffffffffffffffffffffffffffffffffffffff1673ffffffffffffffffffffffffffffffffffffffff168152602001965050505050505060405180910390a1505050505050505050565b600080600080600060058060058111156119f957fe5b600c60009054906101000a900460ff166005811115611a1457fe5b101515611a2057600080fd5b6000809054906101000a900473ffffffffffffffffffffffffffffffffffffffff1673ffffffffffffffffffffffffffffffffffffffff163373ffffffffffffffffffffffffffffffffffffffff161480611acb575060011515600160003373ffffffffffffffffffffffffffffffffffffffff1673ffffffffffffffffffffffffffffffffffffffff16815260200190815260200160002060009054906101000a900460ff161515145b1515611ad657600080fd5b429550611af1600c60009054906101000a900460ff16612899565b94508585600401819055506001600c60009054906101000a900460ff166005811115611b1957fe5b019350836005811115611b2857fe5b600c60006101000a81548160ff02191690836005811115611b4557fe5b0217905550611b62600c60009054906101000a900460ff16612899565b9250858360030181905550600460009054906101000a900473ffffffffffffffffffffffffffffffffffffffff1673ffffffffffffffffffffffffffffffffffffffff16633064876584600101546040518263ffffffff167c010000000000000000000000000000000000000000000000000000000002815260040180828152602001915050602060405180830381600087803b158015611c0257600080fd5b505af1158015611c16573d6000803e3d6000fd5b505050506040513d6020811015611c2c57600080fd5b81019080805190602001909291905050509150811515611c4b57600080fd5b7feca59bc5bedaefc73615c8c797079b276cde1be0b6b3ebfb67e8fcda79ddb9373387600c60009054906101000a900460ff1686600101548760020154604051808673ffffffffffffffffffffffffffffffffffffffff1673ffffffffffffffffffffffffffffffffffffffff168152602001858152602001846005811115611cd057fe5b60ff1681526020018381526020018281526020019550505050505060405180910390a1505050505050565b60096020528060005260406000206000915090505481565b600c60009054906101000a900460ff1681565b6000806000806000806005811115611d3a57fe5b600c60009054906101000a900460ff166005811115611d5557fe5b111515611d6157600080fd5b6005806005811115611d6f57fe5b600c60009054906101000a900460ff166005811115611d8a57fe5b101515611d9657600080fd5b600034111515611da557600080fd5b611e7d8b8b6040516020018083600019166000191681526020018273ffffffffffffffffffffffffffffffffffffffff1673ffffffffffffffffffffffffffffffffffffffff166c01000000000000000000000000028152601401925050506040516020818303038152906040526040518082805190602001908083835b602083101515611e485780518252602082019150602081019050602083039250611e23565b6001836020036101000a03801982511681845116808217855250505050505090500191505060405180910390208a8a8a612660565b9550600560009054906101000a900473ffffffffffffffffffffffffffffffffffffffff1673ffffffffffffffffffffffffffffffffffffffff168673ffffffffffffffffffffffffffffffffffffffff16141515611edb57600080fd5b611ef3600c60009054906101000a900460ff16612899565b945084600201548560000154101515611f0b57600080fd5b600460009054906101000a900473ffffffffffffffffffffffffffffffffffffffff1673ffffffffffffffffffffffffffffffffffffffff1663a6413a2734600260009054906101000a900473ffffffffffffffffffffffffffffffffffffffff1673ffffffffffffffffffffffffffffffffffffffff1663313ce5676040518163ffffffff167c0100000000000000000000000000000000000000000000000000000000028152600401602060405180830381600087803b158015611fd057600080fd5b505af1158015611fe4573d6000803e3d6000fd5b505050506040513d6020811015611ffa57600080fd5b81019080805190602001909291905050506040518363ffffffff167c0100000000000000000000000000000000000000000000000000000000028152600401808381526020018260ff16815260200192505050602060405180830381600087803b15801561206757600080fd5b505af115801561207b573d6000803e3d6000fd5b505050506040513d602081101561209157600080fd5b810190808051906020019092919050505093506000841115156120b357600080fd5b6120ce856000015486600201546128e190919063ffffffff16565b92508383101515156120df57600080fd5b6120f68486600001546128c590919063ffffffff16565b856000018190555061215084600760003373ffffffffffffffffffffffffffffffffffffffff1673ffffffffffffffffffffffffffffffffffffffff168152602001908152602001600020546128c590919063ffffffff16565b600760003373ffffffffffffffffffffffffffffffffffffffff1673ffffffffffffffffffffffffffffffffffffffff168152602001908152602001600020819055506121e534600860003373ffffffffffffffffffffffffffffffffffffffff1673ffffffffffffffffffffffffffffffffffffffff168152602001908152602001600020546128c590919063ffffffff16565b600860003373ffffffffffffffffffffffffffffffffffffffff1673ffffffffffffffffffffffffffffffffffffffff1681526020019081526020016000208190555061225684600960008e60001916600019168152602001908152602001600020546128c590919063ffffffff16565b600960008d60001916600019168152602001908152602001600020819055506122a334600a60008e60001916600019168152602001908152602001600020546128c590919063ffffffff16565b600a60008d60001916600019168152602001908152602001600020819055506122d784600d546128c590919063ffffffff16565b600d819055506122f234600e546128c590919063ffffffff16565b600e81905550600260009054906101000a900473ffffffffffffffffffffffffffffffffffffffff1673ffffffffffffffffffffffffffffffffffffffff166323b872dd6000809054906101000a900473ffffffffffffffffffffffffffffffffffffffff1633876040518463ffffffff167c0100000000000000000000000000000000000000000000000000000000028152600401808473ffffffffffffffffffffffffffffffffffffffff1673ffffffffffffffffffffffffffffffffffffffff1681526020018373ffffffffffffffffffffffffffffffffffffffff1673ffffffffffffffffffffffffffffffffffffffff1681526020018281526020019350505050602060405180830381600087803b15801561241257600080fd5b505af1158015612426573d6000803e3d6000fd5b505050506040513d602081101561243c57600080fd5b810190808051906020019092919050505050600360009054906101000a900473ffffffffffffffffffffffffffffffffffffffff1673ffffffffffffffffffffffffffffffffffffffff166108fc349081150290604051600060405180830381858888f193505050501580156124b6573d6000803e3d6000fd5b50600660009054906101000a900473ffffffffffffffffffffffffffffffffffffffff1673ffffffffffffffffffffffffffffffffffffffff1663a2d83b5e8b866040518363ffffffff167c0100000000000000000000000000000000000000000000000000000000028152600401808373ffffffffffffffffffffffffffffffffffffffff1673ffffffffffffffffffffffffffffffffffffffff16815260200182815260200192505050600060405180830381600087803b15801561257c57600080fd5b505af1158015612590573d6000803e3d6000fd5b505050507f47733ba13fc307be0b04f5147c3b0fb6855849f19c369c0ad4c52cbd4549cd908b334234888f6040518087600019166000191681526020018673ffffffffffffffffffffffffffffffffffffffff1673ffffffffffffffffffffffffffffffffffffffff1681526020018581526020018481526020018381526020018273ffffffffffffffffffffffffffffffffffffffff1673ffffffffffffffffffffffffffffffffffffffff168152602001965050505050505060405180910390a15050505050505050505050565b6000606060006040805190810160405280601c81526020017f19457468657265756d205369676e6564204d6573736167653a0a333200000000815250915081876040516020018083805190602001908083835b6020831015156126d857805182526020820191506020810190506020830392506126b3565b6001836020036101000a0380198251168184511680821785525050505050509050018260001916600019168152602001925050506040516020818303038152906040526040518082805190602001908083835b602083101515612750578051825260208201915060208101905060208303925061272b565b6001836020036101000a03801982511681845116808217855250505050505090500191505060405180910390209050600181878787604051600081526020016040526040518085600019166000191681526020018460ff1660ff1681526020018360001916600019168152602001826000191660001916815260200194505050505060206040516020810390808403906000865af11580156127f6573d6000803e3d6000fd5b5050506020604051035192505050949350505050565b6000809054906101000a900473ffffffffffffffffffffffffffffffffffffffff1673ffffffffffffffffffffffffffffffffffffffff163373ffffffffffffffffffffffffffffffffffffffff1614151561286757600080fd5b612870816128fa565b50565b600260009054906101000a900473ffffffffffffffffffffffffffffffffffffffff1681565b6000808260058111156128a857fe5b9050600b6000828152602001908152602001600020915050919050565b600081830190508281101515156128d857fe5b80905092915050565b60008282111515156128ef57fe5b818303905092915050565b600073ffffffffffffffffffffffffffffffffffffffff168173ffffffffffffffffffffffffffffffffffffffff161415151561293657600080fd5b8073ffffffffffffffffffffffffffffffffffffffff166000809054906101000a900473ffffffffffffffffffffffffffffffffffffffff1673ffffffffffffffffffffffffffffffffffffffff167f8be0079c531659141344cd1fd0a4f28419497f9722a3daafe3b4186f6b6457e060405160405180910390a3806000806101000a81548173ffffffffffffffffffffffffffffffffffffffff021916908373ffffffffffffffffffffffffffffffffffffffff16021790555050565b60a060405190810160405280600081526020016000815260200160008152602001600081526020016000815250905600a165627a7a7230582098845e63528de60e95d4b0ca0437ca6ab13eb205ef359bc239f13c9b8d5648b30029",
  "source": "pragma solidity ^0.4.23;\n\nimport \"openzeppelin-solidity/contracts/ownership/Ownable.sol\";\nimport \"openzeppelin-solidity/contracts/math/SafeMath.sol\";\nimport \"./interfaces/PricingStrategyInterface.sol\";\nimport \"openzeppelin-solidity/contracts/token/ERC20/DetailedERC20.sol\";\nimport \"./PelotonReferrals.sol\";\n\ncontract PelotonCrowdsale is AllowedAddresses {\n    using SafeMath for uint256;\n\n    enum Status {Unknown, ST1, ST2, ST3, ST4, Finished}\n\n    struct Stage {\n        uint256 sold;\n        uint256 discount;\n        uint256 maxTokens;\n        uint256 startTime;\n        uint256 endTime;\n    }\n\n    DetailedERC20 public token;\n    address public wallet;\n    PricingStrategyInterface public pricingStrategy;\n    address public verifier;\n    PelotonReferrals public referrals;\n\n    mapping(address => uint256) public addressTokens;\n    mapping(address => uint256) public addressWei;\n    mapping(bytes32 => uint256) public uuidTokens;\n    mapping(bytes32 => uint256) public uuidWei;\n    mapping(uint256 => Stage) public stages;\n\n    Status public currentStatus = Status.Unknown;\n    uint256 public tokensSold = 0;\n    uint256 public weiReceived = 0;\n\n\n    event NextStage(address _from, uint256 _timestamp, Status _currentStatus, uint256 _discount, uint256 _maxTokens);\n    event PricingStrategyChanged(address _from, address _prevAddress, address _newAddress);\n    event Invested(bytes32 _uuid, address _investor, uint256 _timestamp, uint256 _wei, uint256 _tokens, address _referral);\n    event VerifierChanged(address _from, address _prevAddress, address _newAddress);\n\n    /// @dev modifier that allow to call function if current status is bigger than specified\n    modifier statusAfter(Status _status) {\n        require(uint256(currentStatus) > uint256(_status));\n        _;\n    }\n\n    /// @dev modifier that allow to call function if current status is less than specified\n    modifier statusBefore(Status _status) {\n        require(uint256(currentStatus) < uint256(_status));\n        _;\n    }\n\n    constructor(DetailedERC20 _token, address _wallet, PricingStrategyInterface _pricingStrategy, address _verifier, PelotonReferrals _referrals) public {\n        owner = msg.sender;\n        token = _token;\n        wallet = _wallet;\n        pricingStrategy = _pricingStrategy;\n        verifier = _verifier;\n        referrals = _referrals;\n\n        // Starting stage for crowdsale, doesn't sale any tokens\n        stages[uint256(Status.Unknown)] = Stage({\n            sold : 0,\n            discount : 0,\n            maxTokens : 0,\n            startTime : 0,\n            endTime : 0\n            });\n\n        stages[uint256(Status.ST1)] = Stage({\n            sold: 0,\n            discount : 30,\n            maxTokens : 112000000 * (10 ** uint256(token.decimals())),\n            startTime: 0,\n            endTime: 0\n            });\n\n        stages[uint256(Status.ST2)] = Stage({\n            sold: 0,\n            discount : 20,\n            maxTokens : 64000000 * (10 ** uint256(token.decimals())),\n            startTime: 0,\n            endTime: 0\n            });\n\n        stages[uint256(Status.ST3)] = Stage({\n            sold: 0,\n            discount : 10,\n            maxTokens : 48000000 * (10 ** uint256(token.decimals())),\n            startTime: 0,\n            endTime: 0\n            });\n\n        stages[uint256(Status.ST4)] = Stage({\n            sold: 0,\n            discount : 0,\n            maxTokens : 16000000 * (10 ** uint256(token.decimals())),\n            startTime: 0,\n            endTime: 0\n            });\n\n        // Final stage of ICO that indicate that ICO is ended, doesn't sale any tokens\n        stages[uint256(Status.Finished)] = Stage({\n            sold: 0,\n            discount : 0,\n            maxTokens : 0,\n            startTime: 0,\n            endTime: 0\n            });\n    }\n\n    /// @dev function is set next status (from Status enum) for crowdsale and fill info for current and next stage\n    /// can be called only from allowed addresses\n    function nextStage() statusBefore(Status.Finished) onlyAllowedAddresses external {\n        uint256 currentTime = now;\n\n        // update prev stage end time\n        Stage storage prevStage = getStage(currentStatus);\n        prevStage.endTime = currentTime;\n\n        // move to next stage\n        uint256 nextStatus = uint256(currentStatus) + 1;\n        currentStatus = Status(nextStatus);\n\n        // get nex stage struct\n        Stage storage currentStage = getStage(currentStatus);\n\n        // set start time\n        currentStage.startTime = currentTime;\n\n        // update disciunt for pricing strategy\n        bool isUpdated = pricingStrategy.setTokenDiscount(currentStage.discount);\n        require(isUpdated);\n\n        emit NextStage(\n            msg.sender,\n            currentTime,\n            currentStatus,\n            currentStage.discount,\n            currentStage.maxTokens\n        );\n    }\n\n    /// @dev function that allow users to buy tokens, that are calculated using pricing strategy contract\n    function invest(bytes32 _uuid, address _referral, uint8 v, bytes32 r, bytes32 s) statusAfter(Status.Unknown) statusBefore(Status.Finished) external payable {\n        require(msg.value > 0);\n\n        address verifyAddress = verify(keccak256(abi.encodePacked(_uuid, _referral)), v, r, s);\n        require(verifyAddress == verifier);\n\n        Stage storage currentStage = getStage(currentStatus);\n        require(currentStage.sold < currentStage.maxTokens);\n\n        uint256 tokens = pricingStrategy.calculatePrice(msg.value, token.decimals());\n        require(tokens > 0);\n\n        uint256 tokensLeft = currentStage.maxTokens.sub(currentStage.sold);\n        require(tokensLeft >= tokens);\n\n        currentStage.sold = currentStage.sold.add(tokens);\n\n        addressTokens[msg.sender] = addressTokens[msg.sender].add(tokens);\n        addressWei[msg.sender] = addressWei[msg.sender].add(msg.value);\n        uuidTokens[_uuid] = uuidTokens[_uuid].add(tokens);\n        uuidWei[_uuid] = uuidWei[_uuid].add(msg.value);\n        tokensSold = tokensSold.add(tokens);\n        weiReceived = weiReceived.add(msg.value);\n\n        token.transferFrom(owner, msg.sender, tokens);\n        wallet.transfer(msg.value);\n        referrals.update(_referral, tokens);\n\n        emit Invested(_uuid, msg.sender, now, msg.value, tokens, _referral);\n    }\n\n    event Left(uint256 _left, uint256 _current, uint256 _wei, bool _result);\n\n    /// @dev function that allow users to buy tokens, that are calculated using pricing strategy contract\n    function allocate(bytes32 _uuid, address _to, uint256 _wei, address _referral) onlyAllowedAddresses statusAfter(Status.Unknown) statusBefore(Status.Finished) external {\n        Stage storage currentStage = getStage(currentStatus);\n        require(currentStage.sold < currentStage.maxTokens);\n\n        uint256 tokens = pricingStrategy.calculatePrice(_wei, token.decimals());\n        require(tokens > 0);\n\n        uint256 tokensLeft = currentStage.maxTokens - 0;\n        require(tokensLeft >= tokens);\n\n        currentStage.sold = currentStage.sold.add(tokens);\n\n        addressTokens[_to] = addressTokens[_to].add(tokens);\n        addressWei[_to] = addressWei[_to].add(_wei);\n        uuidTokens[_uuid] = uuidTokens[_uuid].add(tokens);\n        uuidWei[_uuid] = uuidWei[_uuid].add(msg.value);\n        tokensSold = tokensSold.add(tokens);\n        weiReceived = weiReceived.add(_wei);\n\n        token.transferFrom(owner, _to, tokens);\n        referrals.update(_referral, tokens);\n\n        emit Invested(_uuid, _to, now, _wei, tokens, _referral);\n    }\n\n    /// @dev set new pricing strategy contract\n    function setPricingStartegy(PricingStrategyInterface _pricingStrategy) onlyOwner external {\n        require(_pricingStrategy.isPricingStrategy());\n        emit PricingStrategyChanged(msg.sender, pricingStrategy, _pricingStrategy);\n\n        pricingStrategy = _pricingStrategy;\n    }\n\n    /// @dev set new address that will verify investments\n    function setVerifier(address _addr) onlyOwner external {\n        emit VerifierChanged(msg.sender, verifier, _addr);\n        verifier = _addr;\n    }\n\n    /// @dev get info about specified stage\n    function getStageInfo(Status _status) external view returns (uint256 _discount, uint256 _maxTokens, uint256 _start, uint256 _end) {\n        Stage memory currentStage = getStage(_status);\n        _discount = currentStage.discount;\n        _maxTokens = currentStage.maxTokens;\n        _start = currentStage.startTime;\n        _end = currentStage.endTime;\n    }\n\n    /// @dev internal function for getting specified stage object\n    function getStage(Status _status) internal view returns (Stage storage) {\n        uint256 index = uint256(_status);\n        return stages[index];\n    }\n\n    function getHash(bytes32 _uuid, address _referral) external returns(bytes32 hash, bytes32 uuid) {\n        uuid = _uuid;\n        hash = keccak256(abi.encodePacked(_uuid, _referral));\n    }\n\n    /// @dev verify hash signature\n    function verify(bytes32 hash, uint8 v, bytes32 r, bytes32 s) public view returns(address) {\n        bytes memory prefix = \"\\x19Ethereum Signed Message:\\n32\";\n        bytes32 prefixedHash = keccak256(abi.encodePacked(prefix, hash));\n        return ecrecover(prefixedHash, v, r, s);\n    }\n}\n",
  "sourcePath": "/home/kostya/IdeaProjects/Peloton-SmartContracts/contracts/PelotonCrowdsale.sol",
  "compiler": {
    "name": "solc",
    "version": "0.4.24+commit.e67f0147.Emscripten.clang"
  },
  "schemaVersion": "2.0.1",
  "updatedAt": "2018-10-30T13:33:13.633Z"
}