{
  "contractName": "PelotonPricingStrategy",
  "abi": [
    {
      "constant": true,
      "inputs": [],
      "name": "isPricingStrategy",
      "outputs": [
        {
          "name": "",
          "type": "bool"
        }
      ],
      "payable": false,
      "stateMutability": "pure",
      "type": "function"
    },
    {
      "constant": false,
      "inputs": [],
      "name": "unpause",
      "outputs": [],
      "payable": false,
      "stateMutability": "nonpayable",
      "type": "function"
    },
    {
      "constant": true,
      "inputs": [
        {
          "name": "",
          "type": "address"
        }
      ],
      "name": "allowedAddresses",
      "outputs": [
        {
          "name": "",
          "type": "bool"
        }
      ],
      "payable": false,
      "stateMutability": "view",
      "type": "function"
    },
    {
      "constant": false,
      "inputs": [
        {
          "name": "_address",
          "type": "address"
        },
        {
          "name": "_allow",
          "type": "bool"
        }
      ],
      "name": "allowAddress",
      "outputs": [],
      "payable": false,
      "stateMutability": "nonpayable",
      "type": "function"
    },
    {
      "constant": true,
      "inputs": [],
      "name": "paused",
      "outputs": [
        {
          "name": "",
          "type": "bool"
        }
      ],
      "payable": false,
      "stateMutability": "view",
      "type": "function"
    },
    {
      "constant": true,
      "inputs": [],
      "name": "discount",
      "outputs": [
        {
          "name": "",
          "type": "uint256"
        }
      ],
      "payable": false,
      "stateMutability": "view",
      "type": "function"
    },
    {
      "constant": false,
      "inputs": [],
      "name": "renounceOwnership",
      "outputs": [],
      "payable": false,
      "stateMutability": "nonpayable",
      "type": "function"
    },
    {
      "constant": false,
      "inputs": [],
      "name": "pause",
      "outputs": [],
      "payable": false,
      "stateMutability": "nonpayable",
      "type": "function"
    },
    {
      "constant": true,
      "inputs": [],
      "name": "oneTokenInWei",
      "outputs": [
        {
          "name": "",
          "type": "uint256"
        }
      ],
      "payable": false,
      "stateMutability": "view",
      "type": "function"
    },
    {
      "constant": true,
      "inputs": [],
      "name": "owner",
      "outputs": [
        {
          "name": "",
          "type": "address"
        }
      ],
      "payable": false,
      "stateMutability": "view",
      "type": "function"
    },
    {
      "constant": false,
      "inputs": [
        {
          "name": "_newOwner",
          "type": "address"
        }
      ],
      "name": "transferOwnership",
      "outputs": [],
      "payable": false,
      "stateMutability": "nonpayable",
      "type": "function"
    },
    {
      "anonymous": false,
      "inputs": [],
      "name": "Pause",
      "type": "event"
    },
    {
      "anonymous": false,
      "inputs": [],
      "name": "Unpause",
      "type": "event"
    },
    {
      "anonymous": false,
      "inputs": [
        {
          "indexed": false,
          "name": "_updatedFrom",
          "type": "address"
        },
        {
          "indexed": false,
          "name": "_oneTokenInWei",
          "type": "uint256"
        }
      ],
      "name": "TokenPriceInWeiUpdated",
      "type": "event"
    },
    {
      "anonymous": false,
      "inputs": [
        {
          "indexed": false,
          "name": "_updatedFrom",
          "type": "address"
        },
        {
          "indexed": false,
          "name": "_discount",
          "type": "uint256"
        }
      ],
      "name": "TokenDiscountUpdated",
      "type": "event"
    },
    {
      "anonymous": false,
      "inputs": [
        {
          "indexed": true,
          "name": "previousOwner",
          "type": "address"
        }
      ],
      "name": "OwnershipRenounced",
      "type": "event"
    },
    {
      "anonymous": false,
      "inputs": [
        {
          "indexed": true,
          "name": "previousOwner",
          "type": "address"
        },
        {
          "indexed": true,
          "name": "newOwner",
          "type": "address"
        }
      ],
      "name": "OwnershipTransferred",
      "type": "event"
    },
    {
      "constant": true,
      "inputs": [
        {
          "name": "_value",
          "type": "uint256"
        },
        {
          "name": "_decimals",
          "type": "uint256"
        }
      ],
      "name": "calculatePrice",
      "outputs": [
        {
          "name": "",
          "type": "uint256"
        }
      ],
      "payable": false,
      "stateMutability": "view",
      "type": "function"
    },
    {
      "constant": false,
      "inputs": [
        {
          "name": "_oneTokenInWei",
          "type": "uint256"
        }
      ],
      "name": "setTokenPriceInWei",
      "outputs": [
        {
          "name": "",
          "type": "bool"
        }
      ],
      "payable": false,
      "stateMutability": "nonpayable",
      "type": "function"
    },
    {
      "constant": false,
      "inputs": [
        {
          "name": "_discountPercents",
          "type": "uint256"
        }
      ],
      "name": "setTokenDiscount",
      "outputs": [
        {
          "name": "",
          "type": "bool"
        }
      ],
      "payable": false,
      "stateMutability": "nonpayable",
      "type": "function"
    }
  ],
  "bytecode": "0x60806040526000600460006101000a81548160ff021916908315150217905550336000806101000a81548173ffffffffffffffffffffffffffffffffffffffff021916908373ffffffffffffffffffffffffffffffffffffffff160217905550610ccb8061006e6000396000f3006080604052600436106100d0576000357c0100000000000000000000000000000000000000000000000000000000900463ffffffff16806304bbc255146100d557806330648765146101045780633f4ba83a146101495780634120657a146101605780634edc689d146101bb5780635c975abb1461020a5780636b6f4a9d14610239578063715018a6146102645780638456cb591461027b57806384e3ac94146102925780638da5cb5b146102bd578063a6413a2714610314578063b597e7841461035f578063f2fde38b146103a4575b600080fd5b3480156100e157600080fd5b506100ea6103e7565b604051808215151515815260200191505060405180910390f35b34801561011057600080fd5b5061012f600480360381019080803590602001909291905050506103f0565b604051808215151515815260200191505060405180910390f35b34801561015557600080fd5b5061015e61054f565b005b34801561016c57600080fd5b506101a1600480360381019080803573ffffffffffffffffffffffffffffffffffffffff16906020019092919050505061060e565b604051808215151515815260200191505060405180910390f35b3480156101c757600080fd5b50610208600480360381019080803573ffffffffffffffffffffffffffffffffffffffff16906020019092919080351515906020019092919050505061062e565b005b34801561021657600080fd5b5061021f6106e4565b604051808215151515815260200191505060405180910390f35b34801561024557600080fd5b5061024e6106f7565b6040518082815260200191505060405180910390f35b34801561027057600080fd5b506102796106fd565b005b34801561028757600080fd5b506102906107ff565b005b34801561029e57600080fd5b506102a76108bf565b6040518082815260200191505060405180910390f35b3480156102c957600080fd5b506102d26108c5565b604051808273ffffffffffffffffffffffffffffffffffffffff1673ffffffffffffffffffffffffffffffffffffffff16815260200191505060405180910390f35b34801561032057600080fd5b5061034960048036038101908080359060200190929190803590602001909291905050506108ea565b6040518082815260200191505060405180910390f35b34801561036b57600080fd5b5061038a6004803603810190808035906020019092919050505061099f565b604051808215151515815260200191505060405180910390f35b3480156103b057600080fd5b506103e5600480360381019080803573ffffffffffffffffffffffffffffffffffffffff169060200190929190505050610af0565b005b60006001905090565b60008060009054906101000a900473ffffffffffffffffffffffffffffffffffffffff1673ffffffffffffffffffffffffffffffffffffffff163373ffffffffffffffffffffffffffffffffffffffff16148061049d575060011515600160003373ffffffffffffffffffffffffffffffffffffffff1673ffffffffffffffffffffffffffffffffffffffff16815260200190815260200160002060009054906101000a900460ff161515145b15156104a857600080fd5b600460009054906101000a900460ff161515156104c457600080fd5b606482111515156104d457600080fd5b816003819055507f1722d08056d3eb5a649fcf8f28333c1991a33c4babae79a22e335a03abcfde353383604051808373ffffffffffffffffffffffffffffffffffffffff1673ffffffffffffffffffffffffffffffffffffffff1681526020018281526020019250505060405180910390a160019050919050565b6000809054906101000a900473ffffffffffffffffffffffffffffffffffffffff1673ffffffffffffffffffffffffffffffffffffffff163373ffffffffffffffffffffffffffffffffffffffff161415156105aa57600080fd5b600460009054906101000a900460ff1615156105c557600080fd5b6000600460006101000a81548160ff0219169083151502179055507f7805862f689e2f13df9f062ff482ad3ad112aca9e0847911ed832e158c525b3360405160405180910390a1565b60016020528060005260406000206000915054906101000a900460ff1681565b6000809054906101000a900473ffffffffffffffffffffffffffffffffffffffff1673ffffffffffffffffffffffffffffffffffffffff163373ffffffffffffffffffffffffffffffffffffffff1614151561068957600080fd5b80600160008473ffffffffffffffffffffffffffffffffffffffff1673ffffffffffffffffffffffffffffffffffffffff16815260200190815260200160002060006101000a81548160ff0219169083151502179055505050565b600460009054906101000a900460ff1681565b60035481565b6000809054906101000a900473ffffffffffffffffffffffffffffffffffffffff1673ffffffffffffffffffffffffffffffffffffffff163373ffffffffffffffffffffffffffffffffffffffff1614151561075857600080fd5b6000809054906101000a900473ffffffffffffffffffffffffffffffffffffffff1673ffffffffffffffffffffffffffffffffffffffff167ff8df31144d9c2f0f6b59d69b8b98abd5459d07f2742c4df920b25aae33c6482060405160405180910390a260008060006101000a81548173ffffffffffffffffffffffffffffffffffffffff021916908373ffffffffffffffffffffffffffffffffffffffff160217905550565b6000809054906101000a900473ffffffffffffffffffffffffffffffffffffffff1673ffffffffffffffffffffffffffffffffffffffff163373ffffffffffffffffffffffffffffffffffffffff1614151561085a57600080fd5b600460009054906101000a900460ff1615151561087657600080fd5b6001600460006101000a81548160ff0219169083151502179055507f6985a02210a168e66602d3235cb6db0e70f92b3ba4d376a33c0f3d9434bff62560405160405180910390a1565b60025481565b6000809054906101000a900473ffffffffffffffffffffffffffffffffffffffff1681565b600080600080600080600460009054906101000a900460ff1615151561090f57600080fd5b86600a0a94506109288589610b5790919063ffffffff16565b935060025492506000600354111561096d57600354606403915061096a606461095c84600254610b5790919063ffffffff16565b610b8f90919063ffffffff16565b92505b60008311151561097c57600080fd5b61098f8385610b8f90919063ffffffff16565b9050809550505050505092915050565b60008060009054906101000a900473ffffffffffffffffffffffffffffffffffffffff1673ffffffffffffffffffffffffffffffffffffffff163373ffffffffffffffffffffffffffffffffffffffff161480610a4c575060011515600160003373ffffffffffffffffffffffffffffffffffffffff1673ffffffffffffffffffffffffffffffffffffffff16815260200190815260200160002060009054906101000a900460ff161515145b1515610a5757600080fd5b600460009054906101000a900460ff16151515610a7357600080fd5b816002819055507f0f3ee8a07eeda8f7bb8efd3f8b4530a1fb976f2bf3337e1172a05aa1c12e966733600254604051808373ffffffffffffffffffffffffffffffffffffffff1673ffffffffffffffffffffffffffffffffffffffff1681526020018281526020019250505060405180910390a160019050919050565b6000809054906101000a900473ffffffffffffffffffffffffffffffffffffffff1673ffffffffffffffffffffffffffffffffffffffff163373ffffffffffffffffffffffffffffffffffffffff16141515610b4b57600080fd5b610b5481610ba5565b50565b600080831415610b6a5760009050610b89565b8183029050818382811515610b7b57fe5b04141515610b8557fe5b8090505b92915050565b60008183811515610b9c57fe5b04905092915050565b600073ffffffffffffffffffffffffffffffffffffffff168173ffffffffffffffffffffffffffffffffffffffff1614151515610be157600080fd5b8073ffffffffffffffffffffffffffffffffffffffff166000809054906101000a900473ffffffffffffffffffffffffffffffffffffffff1673ffffffffffffffffffffffffffffffffffffffff167f8be0079c531659141344cd1fd0a4f28419497f9722a3daafe3b4186f6b6457e060405160405180910390a3806000806101000a81548173ffffffffffffffffffffffffffffffffffffffff021916908373ffffffffffffffffffffffffffffffffffffffff160217905550505600a165627a7a72305820e78059b5515a086d29af87c4565cf1a2510896ce13d10c0eae800baf40daa78f0029",
  "source": "pragma solidity ^0.4.23;\n\nimport \"./interfaces/PricingStrategyInterface.sol\";\nimport \"openzeppelin-solidity/contracts/lifecycle/Pausable.sol\";\n\ncontract PelotonPricingStrategy is PricingStrategyInterface, Pausable {\n\n    function calculatePrice(uint256 _value, uint256 _decimals) whenNotPaused public constant returns (uint256) {\n        uint256 multiplier = 10 ** _decimals;\n        uint256 weiAmount = _value.mul(multiplier);\n\n        uint256 resultTokenInWei = oneTokenInWei;\n        if (discount > 0) {\n            uint256 resultPricePercent = 100 - discount;\n            resultTokenInWei = oneTokenInWei.mul(resultPricePercent).div(100);\n        }\n\n        require(resultTokenInWei > 0);\n\n        uint256 tokens = weiAmount.div(resultTokenInWei);\n\n        return tokens;\n    }\n\n    function setTokenPriceInWei(uint256 _oneTokenInWei) onlyAllowedAddresses whenNotPaused public returns (bool) {\n        oneTokenInWei = _oneTokenInWei;\n        emit TokenPriceInWeiUpdated(msg.sender, oneTokenInWei);\n        return true;\n    }\n\n    function setTokenDiscount(uint256 _discountPercents) onlyAllowedAddresses whenNotPaused public returns (bool) {\n        // discount can not be more than 100%\n        require(_discountPercents <= 100);\n\n        discount = _discountPercents;\n        emit TokenDiscountUpdated(msg.sender, _discountPercents);\n        return true;\n    }\n}",
  "sourcePath": "/home/kostya/IdeaProjects/Peloton-SmartContracts/contracts/PelotonPricingStrategy.sol",
  "compiler": {
    "name": "solc",
    "version": "0.4.24+commit.e67f0147.Emscripten.clang"
  },
  "schemaVersion": "2.0.1",
  "updatedAt": "2018-10-30T13:33:13.620Z"
}